:100000000C942A000C943C000C943C000C943C0092
:100010000C943C000C943C000C943C000C943C0070
:100020000C943C000C943C000C943C000C943C0060
:100030000C943C000C943C000C943C000C943C0050
:100040000C943C000C943C000C943C000C943C0040
:100050000C943C0011241FBECFE5D8E0DEBFCDBF1D
:1000600020E0A0E6B0E001C01D92A836B207E1F79B
:100070000E9467000C9470010C94000095B39F706F
:10008000282F207F922B95BBA898A99A42E04A95E9
:10009000F1F700C0A998EFE8F1E03197F1F700C05F
:1000A000000095B39F70F0E18F9F90011124892F7C
:1000B000822B85BBA99A42E04A95F1F700C0A99826
:1000C0008FE99FE00197F1F700C0000008956E9A54
:1000D0008DB18DB98DB18DB98DB183608DB98EB172
:1000E0008EB98DB18DB98DB18DB98FEF84BB8FE392
:1000F0009CE90197F1F700C0000082E00E943E00F9
:1001000088E20E943E008CE00E943E0086E00E9451
:100110003E0081E00E943E00AFE9BFE01197F1F799
:1001200000C000008BE087BB18BA8BE683BF12BE0D
:100130001CBE93E891BB12BA85BD14BC13BC00E38E
:10014000CFEFD6E91BE481E00E943E008FE99FE0FB
:100150000197F1F700C0000080E80E943E000FB94F
:10016000779BFECF8FB14AE060E670E090E00E949E
:100170003B01E0E6F0E0AF01DA010D900020E9F785
:10018000CD01815690409F012056304028173907F5
:1001900008F448C08FB1893128F48FB1853110F04F
:1001A00013BC1CBE8FB18931C0F08FB18932A8F465
:1001B0008FB1893120F08FB18E3108F41CBF8FB11F
:1001C0008E3120F08FB1833208F4DCBF8FB18332DF
:1001D00020F08FB1893208F4CCBF8FB18531C0F4E3
:1001E0008FB18530A8F08FB1853120F48FB1803187
:1001F00008F013BD8FB1803120F48FB18B3008F03F
:10020000D3BD8FB18B3020F48FB1853008F0C3BDE2
:10021000BFEF24E38CE0B15020408040E1F700C004
:10022000000091CF219195B39F70822F807F982BF2
:1002300095BBA89AA99A92E09A95F1F700C0A9985F
:10024000AFE8B1E01197F1F700C0000085B38F70FF
:10025000B0E12B9F90011124822B85BBA99A22E04B
:100260002A95F1F700C0A9988FE99FE00197F1F76F
:1002700000C0000081CFBB274A3031F4992322F41B
:10028000BDE2909581959F4F0C944701BB27FB01E0
:100290005527AA27880F991FAA1FA41710F0A41B7F
:1002A00083955051B9F7A05DAA3308F0A95DA193D9
:1002B000009779F7B111B1931192CB010C946001C1
:1002C000DC01FC01672F71917723E1F7329704C0BD
:1002D0007C916D9370836291AE17BF07C8F3089548
:0402E000F894FFCFC0
:00000001FF
