:100000000C942A000C943C000C943C000C943C0092
:100010000C943C000C943C000C943C000C943C0070
:100020000C943C000C943C000C943C000C943C0060
:100030000C943C000C943C000C943C000C943C0050
:100040000C943C000C943C000C943C000C943C0040
:100050000C943C0011241FBECFE5D8E0DEBFCDBF1D
:1000600020E0A0E6B0E001C01D92A836B207E1F79B
:100070000E9467000C9439010C94000095B39F70A6
:10008000282F207F922B95BBA898A99A42E04A95E9
:10009000F1F700C0A998EFE8F1E03197F1F700C05F
:1000A000000095B39F70F0E18F9F90011124892F7C
:1000B000822B85BBA99A42E04A95F1F700C0A99826
:1000C0008FE99FE00197F1F700C0000008956E9A54
:1000D0008DB18DB98DB18DB98DB183608DB98EB172
:1000E0008EB98DB18DB98DB18DB98FEF84BB81BBC8
:1000F0008FE39CE90197F1F700C0000082E00E94C5
:100100003E0088E20E943E008CE00E943E0086E0B5
:100110000E943E0081E00E943E00AFE9BFE01197DF
:10012000F1F700C000008BE685BD14BC13BCC0E332
:10013000DBE416E90FEF81E00E943E008FE99FE0CB
:100140000197F1F700C0000080E80E943E00CFB99F
:10015000779BFECF8FB14AE060E670E090E00E94AE
:100160000401E0E6F0E0AF01DA010D900020E9F7CC
:10017000CD01815690409F01205630402817390705
:10018000D0F08FB1811101C013BC8FB1813009F45F
:10019000D3BD8FB1823009F413BD8FB1833009F420
:1001A00003BDBFEF29E688E1B15020408040E1F770
:1001B00000C00000C0CF219195B39F70822F807F37
:1001C000982B95BBA89AA99A92E09A95F1F700C04E
:1001D000A998AFE8B1E01197F1F700C0000085B32E
:1001E0008F70B0E12B9F90011124822B85BBA99ABF
:1001F00022E02A95F1F700C0A9988FE99FE00197C6
:10020000F1F700C00000B0CFBB274A3031F499238A
:1002100022F4BDE2909581959F4F0C941001BB276D
:10022000FB015527AA27880F991FAA1FA41710F0B2
:10023000A41B83955051B9F7A05DAA3308F0A95DBE
:10024000A193009779F7B111B1931192CB010C945E
:100250002901DC01FC01672F71917723E1F73297C7
:1002600004C07C916D9370836291AE17BF07C8F391
:060270000895F894FFCF91
:00000001FF
