:100000000C942A000C9447000C9447000C94470071
:100010000C9447000C9447000C9447000C94470044
:100020000C9447000C9447000C9447000C942F014B
:100030000C9447000C9447000C9447000C94470024
:100040000C9447000C9447000C9447000C94470014
:100050000C94470011241FBECFE5D8E0DEBFCDBF12
:1000600010E0A0E6B0E0ECE8FAE002C005900D92E6
:10007000AE39B107D9F720E0AEE9B0E001C01D927A
:10008000AD3BB207E1F70E9454010C9444050C9477
:100090000000482FD19828E030E080E090E8D89A1E
:1000A000C999892BD898969521503109C1F7D19AD1
:1000B000411104C0D99AD89AD8980895D998FBCFFD
:1000C000CF93DF93D19AD99AD898D89AD998D898BB
:1000D000D89AD99AD898D19A9DE09A95F1F70000CC
:1000E00028E030E090E8D898482F4923E9F0D99AE1
:1000F000D99AD89A969521503109A9F7D898D198CC
:10010000D89A89B3D898C999FECF81E00E94490056
:10011000D82F81E00E944900C82F80E00E9449004A
:10012000CE01DF91CF910895D998E3CF90EF95BBA1
:100130009DE09A95F1F7000093B3907F903F59F1BD
:10014000E0E6F0E030E020E061E070E0AB01022E9C
:1001500001C0440F0A94EAF7409545BB9DE09A958B
:10016000F1F700009C9B80819D9B81819E9B8281F9
:100170009F9B83812F5F3F4F34962430310531F7A9
:1001800020EF25BB9DE09A95F1F7000093B3907F97
:10019000903FB9F708958FEF0895FC019191911167
:1001A00001C0089522B32F70892F807F282B22BB96
:1001B000909A919A82E08A95F1F700C09198AFE801
:1001C000B1E01197F1F700C0000042B34F70B0E109
:1001D0009B9F90011124242B22BB919A82E08A9547
:1001E000F1F700C09198AFE9BFE01197F1F700C0B7
:1001F0000000D4CF92B39F70282F207F922B92BB08
:100200009098919A42E04A95F1F700C09198EFE8F2
:10021000F1E03197F1F700C0000092B39F70F0E178
:100220008F9F90011124892F822B82BB919A42E0EB
:100230004A95F1F700C091988FE99FE00197F1F797
:1002400000C00000089581E00E94FA008FE99FE05D
:100250000197F1F700C0000080E80C94FA001F92AB
:100260000F920FB60F9211248F939F93AF93BF936A
:100270008091B9009091BA00A091BB00B091BC00F0
:100280000196A11DB11D8093B9009093BA00A0936F
:10029000BB00B093BC00BF91AF919F918F910F9025
:1002A0000FBE0F901F9018958FEF81BB8FE39CE9D5
:1002B0000197F1F700C0000082E00E94FA0088E296
:1002C0000E94FA008CE00E94FA0086E00E94FA0088
:1002D00081E00E94FA00EFE9FFE03197F1F700C0FA
:1002E00000008FE084BB80EF85BB80E790E00E9438
:1002F000CD0080EC0E94FA000BEA10E0D0E0C0E0F4
:100300000E9496008093B8008F3FD1F34AE060EBE3
:1003100070E090E00E94C20280EB90E00E94CD006D
:100320006091B800F80161938F01CE010E94F7023D
:100330002196C430D10521F70E9423018EE790E079
:100340000E94CD0080EC0E94FA00C6EAD0E00E9434
:1003500096008093B8008F3FD1F34AE060EB70E0E5
:1003600090E00E94C20280EB90E00E94CD0080915C
:10037000B8008993F0E0CA3ADF0749F70E942301E9
:1003800066EA70E08BEA90E00E943B05892BA1F6BB
:100390008EE890E00E94CD002FEF82E597E021509B
:1003A00080409040E1F700C000000E9423013E9A87
:1003B000399A379A86B1866086B981E08ABB92E025
:1003C0009BBB84EB87BB84E188BB6E9A8DB18DB9F2
:1003D0008DB18DB98DB183608DB98EB18EB98DB16E
:1003E0008DB96C9A93BF12BE89B7816089BF78942A
:1003F000C3E0D2E011E083E090E00E946000BC0125
:1004000090E080E00E9419042AE037ED43E25CE3CB
:100410000E94CE0426E636E640E252E40E9404033F
:100420006093A2007093A3008093A4009093A50012
:1004300085E090E00E946000EFEFF4E32CE0E150F3
:10044000F0402040E1F700C0000083E090E00E940F
:1004500060008AE18A95F1F700C0369A349BFECF9E
:10046000349A64B175B190E080E00E94170420E0F6
:1004700030E040EA50E40E94CE0420E030EC4FE748
:1004800054E40E94760360939E0070939F008093D3
:10049000A0009093A10022B78091B9009091BA007A
:1004A000A091BB00B091BC00BA2FA92F982F88272C
:1004B000820F911DA11DB11D8F379448AE41B1052A
:1004C0000CF499CF1092B9001092BA001092BB00B0
:1004D0001092BC0012BEC2986091A2007091A3005D
:1004E0008091A4009091A5000E94E8036FB9779BCA
:1004F000FECF8FB1C29AC498C0909E00D0909F004A
:10050000E090A000F090A1002AE037ED43E25CE328
:10051000C701B6010E94710387FF06C01FB8779B11
:10052000FECF8FB1C49A67CF2AE037ED43E25CE398
:10053000C701B6010E94C904181664F420E030E037
:1005400040E85FE3C701B6010E947103181614F07A
:100550001FB9E5CF20E030E040E85FE3C701B60116
:100560000E94C904181664F420E030E040E050E432
:10057000C701B6010E947103181614F0DFB9CFCF7E
:10058000CFB9CDCFBB274A3031F4992322F4BDE255
:10059000909581959F4F0C94CE02BB27FB01552768
:1005A000AA27880F991FAA1FA41710F0A41B8395D0
:1005B0005051B9F7A05DAA3308F0A95DA193009747
:1005C00079F7B111B1931192CB010C94E702DC01E0
:1005D000FC01672F71917723E1F7329704C07C917A
:1005E0006D9370836291AE17BF07C8F30895262FED
:1005F000E199FECF9FBB8EBB2DBB0FB6F894E29A5C
:10060000E19A0FBE019608955058BB27AA270E9471
:100610001C030C948F040E94810438F00E9488040B
:1006200020F039F49F3F19F426F40C947E040EF464
:10063000E095E7FB0C947804E92F0E94A00458F39E
:10064000BA17620773078407950720F079F4A6F5B7
:100650000C94C2040EF4E0950B2EBA2FA02D0B01C2
:10066000B90190010C01CA01A0011124FF27591BF7
:1006700099F0593F50F4503E68F11A16F040A22FFD
:10068000232F342F4427585FF3CF4695379527956E
:10069000A795F0405395C9F77EF41F16BA0B620B6D
:1006A000730B840BBAF09150A1F0FF0FBB1F661FB4
:1006B000771F881FC2F70EC0BA0F621F731F841FF7
:1006C00048F4879577956795B795F7959E3F08F01D
:1006D000B0CF9395880F08F09927EE0F97958795DF
:1006E00008950E94540408F481E008950E948A034A
:1006F0000C948F040E94880458F00E94810440F0FA
:1007000029F45F3F29F00C94780451110C94C30430
:100710000C947E040E94A00468F39923B1F355233E
:1007200091F3951B550BBB27AA2762177307840704
:1007300038F09F5F5F4F220F331F441FAA1FA9F39A
:1007400035D00E2E3AF0E0E832D091505040E69588
:10075000001CCAF72BD0FE2F29D0660F771F881FE9
:10076000BB1F261737074807AB07B0E809F0BB0BDC
:10077000802DBF01FF2793585F4F3AF09E3F5105F0
:1007800078F00C9478040C94C3045F3FE4F3983E33
:10079000D4F3869577956795B795F7959F5FC9F7D9
:1007A000880F911D9695879597F90895E1E0660F5A
:1007B000771F881FBB1F621773078407BA0720F0D3
:1007C000621B730B840BBA0BEE1F88F7E09508953C
:1007D0000E94A80488F09F5798F0B92F9927B75125
:1007E000B0F0E1F0660F771F881F991F1AF0BA95D5
:1007F000C9F714C0B13091F00E94C204B1E008956D
:100800000C94C204672F782F8827B85F39F0B93F5E
:10081000CCF3869577956795B395D9F73EF4909587
:100820008095709561957F4F8F4F9F4F0895E89405
:1008300009C097FB3EF490958095709561957F4F28
:100840008F4F9F4F9923A9F0F92F96E9BB279395D6
:10085000F695879577956795B795F111F8CFFAF4E6
:10086000BB0F11F460FF1BC06F5F7F4F8F4F9F4F17
:1008700016C0882311F096E911C0772321F09EE875
:10088000872F762F05C0662371F096E8862F70E0DB
:1008900060E02AF09A95660F771F881FDAF7880FB5
:1008A0009695879597F90895990F0008550FAA0B0B
:1008B000E0E8FEEF16161706E807F907C0F0121673
:1008C0001306E407F50798F0621B730B840B950B76
:1008D00039F40A2661F0232B242B252B21F40895CB
:1008E0000A2609F4A140A6958FEF811D811D089568
:1008F00097F99F6780E870E060E008959FEF80ECD3
:10090000089500240A941616170618060906089575
:1009100000240A9412161306140605060895092EDB
:100920000394000C11F4882352F0BB0F40F4BF2B4A
:1009300011F460FF04C06F5F7F4F8F4F9F4F08958A
:1009400057FD9058440F551F59F05F3F71F0479580
:10095000880F97FB991F61F09F3F79F08795089565
:10096000121613061406551FF2CF4695F1DF08C084
:10097000161617061806991FF1CF869571056105A1
:1009800008940895E894BB2766277727CB0197F949
:1009900008950E94540408F48FEF08950E94E10422
:1009A0000C948F040E94810438F00E94880420F087
:1009B000952311F00C9478040C947E0411240C946B
:1009C000C3040E94A00470F3959FC1F3950F50E0FB
:1009D000551F629FF001729FBB27F00DB11D639FF1
:1009E000AA27F00DB11DAA1F649F6627B00DA11D97
:1009F000661F829F2227B00DA11D621F739FB00D3D
:100A0000A11D621F839FA00D611D221F749F3327AC
:100A1000A00D611D231F849F600D211D822F762F45
:100A20006A2F11249F5750409AF0F1F088234AF022
:100A3000EE0FFF1FBB1F661F771F881F915050408E
:100A4000A9F79E3F510580F00C9478040C94C304E0
:100A50005F3FE4F3983ED4F3869577956795B79515
:100A6000F795E7959F5FC1F7FE2B880F911D96952F
:100A7000879597F90895FB01DC018D91019080190C
:0C0A80000110D9F3990B0895F894FFCFF2
:100A8C000F000E0D0102030C0405060B0708090AE2
:100A9C005365742050617373776F72643A00456EBE
:100AAC007465722050617373776F72643A00537976
:0E0ABC007374656D205374617274656400007C
:00000001FF
